:020000042000DA
:1000000081400141814101428142014381430144D8
:1000100081440145814501468146014781470148A8
:10002000814801498149014A814A014B814B014C78
:10003000814C014D814D014E814E014F814F9711F1
:100040000060938121D47350503097020000938256
:100050002235170300601303E3FA970300609383CC
:1000600063FA638C6200637A730003A50200910255
:100070002320A3001103E36A73FE970200609382BA
:1000800062F817030060130363F863F7620023A0AC
:1000900002009102E37D53FE17410060130181F6D7
:0400A000112001A08A
:1000A400370700108327C70BB7B627D09D06639C7C
:1000B400D706232E070AB72701109847B706400032
:1000C4003706C0FF558F98C7B8437D16B7C50002E1
:1000D400558FB8C3985F1163B7084000718F98DFDC
:1000E400D847558FD8C79847B706F8FFFD16758FC0
:1000F40098C73727011003A685FF83A6C5FF3305DC
:100104006600B337C500B69703A685FF83A6C5FF6F
:10011400E3ECF6FE6394D700E368A6FE3C43B3C762
:1001240017013CC3C9BFB72701109047B7050800A2
:10013400411106C64D8E90C7B0433705F8FF7D15B3
:100144004D8EB0C3905F37C80002498E90DFD04710
:100154004D8ED0C78C473706C0FF7D16F18D8CC7F6
:100164008C5F6D8E90DF0326C70BB7C70002232E6A
:10017400D70A03A587FF83A5C7FF9167AA9733B75B
:10018400A7002E97032588FF8325C8FFE3ECE5FE2F
:100194006314B700E368F5FEB707001023AEC70A7F
:1001A400372701102324070023260700B7C6D0BE33
:1001B40023200704938606ED6307D60037B727D0BC
:1001C4001D076318E604B707001023AE070AB7C774
:1001D400000203A687FF83A6C7FF9167B29733B7D0
:1001E400C700369737C50002032685FF8326C5FF5F
:1001F400E3ECE6FE6314D700E368F6FEF520B707E8
:1002040001208297B24037D5120013057568410169
:10021400828037F751001307E71523A6E7146146D8
:1002240023A0C71223A6E71423A2C71223A6E71408
:1002340023A4C71223A6E71423A6C71223A6E714F0
:100244001306800323A8C71223A6E71423AAC71200
:1002540023A6E71423ACC71223A6E71423AEC712C0
:1002640023AED70A23A2070823A6E71423A407145E
:10027400B9BFB7C7000223AC07FE83A587FF732667
:1002840000B0056737C50002930777BB832685FF57
:100294008D8EE3FDD7FEF32700B0130787BB918F44
:1002A400B3D7E7021307803EBE07B3D7E702370789
:1002B400401FB357F702170700602325F7D4828045
:1002C400970600609386C6D30347050011E3828036
:1002D4009042B737021019E2B73701109043E34F49
:1002E40006FE98C30505CDB7374701103C434111BD
:1002F40006C6F19B3CC373700430B727011023A4D6
:10030400070023AC070223A6070023A007049707CE
:1003140000609387E7CE9843B707840019E3B707D3
:100324000300372701105447DD8E54C71447DD8E70
:1003340014C7545F93C7F7FFFD8E54DF145FD58F46
:100344001CDFC166B73701101307A00898CF1387C5
:10035400160098C70547D8C7B787001037070600A7
:1003640098C79847558F98C72937B240170500009A
:080374001305C5004101A9B702
:10037C0042656E636820436C6F636B2052657365D6
:10038C007420436F6D706C6574650D0A000000007D
:0400000520000000D7
:00000001FF
