:020000042000DA
:1000000081400141814101428142014381430144D8
:1000100081440145814501468146014781470148A8
:10002000814801498149014A814A014B814B014C78
:10003000814C014D814D014E814E014F814F9711F1
:100040000060938121D47350503097020000938256
:10005000E25A170300601303E3FA970300609383E7
:10006000E3FA638C6200637A730003A502009102D5
:100070002320A3001103E36A73FE970200609382BA
:10008000E2F8170300601303E30463F7620023A0A0
:1000900002009102E37D53FE17410060130181F6D7
:0400A000112001A08A
:1000A400370700108327C70BB7B627D09D06639C7C
:1000B400D706232E070AB72701109847B706400032
:1000C4003706C0FF558F98C7B8437D16B7C50002E1
:1000D400558FB8C3985F1163B7084000718F98DFDC
:1000E400D847558FD8C79847B706F8FFFD16758FC0
:1000F40098C73727011003A685FF83A6C5FF3305DC
:100104006600B337C500B69703A685FF83A6C5FF6F
:10011400E3ECF6FE6394D700E368A6FE3C43B3C762
:1001240017013CC3C9BFB72701109047B7050800A2
:10013400411106C64D8E90C7B0433705F8FF7D15B3
:100144004D8EB0C3905F37C80002498E90DFD04710
:100154004D8ED0C78C473706C0FF7D16F18D8CC7F6
:100164008C5F6D8E90DF0326C70BB7C70002232E6A
:10017400D70A03A587FF83A5C7FF9167AA9733B75B
:10018400A7002E97032588FF8325C8FFE3ECE5FE2F
:100194006314B700E368F5FEB707001023AEC70A7F
:1001A400372701102324070023260700B7C6D0BE33
:1001B40023200704938606ED6307D60037B727D0BC
:1001C4001D076319E604B707001023AE070AB7C773
:1001D400000203A687FF83A6C7FF9167B29733B7D0
:1001E400C700369737C50002032685FF8326C5FF5F
:1001F400E3ECE6FE6314D700E368F6FEFD20752CFD
:10020400B70701208297B24037D5120013057568ED
:100214004101828037F751001307E71523A6E7143D
:10022400614623A0C71223A6E71423A2C71223A65C
:10023400E71423A4C71223A6E71423A6C71223A6F0
:10024400E7141306800323A8C71223A6E71423AADE
:10025400C71223A6E71423ACC71223A6E71423AEC0
:10026400C71223AED70A23A2070823A6E71423A4A0
:100274000714B1BFB7C7000223AC07FE83A587FFED
:10028400732600B0056737C50002930777BB832642
:1002940085FF8D8EE3FDD7FEF32700B0130787BBE0
:1002A400918FB3D7E7021307803EBE07B3D7E702A7
:1002B4003707401FB357F702170700602324F7D40A
:1002C400828097060060938626D40347050011E3D5
:1002D40082809042B737021019E2B7370110904379
:1002E400E34F06FE98C30505CDB7374701103C43DD
:1002F400411106C6F19B3CC373700430B72701104B
:1003040023A4070023AC070223A6070023A00704A5
:1003140097070060938747CF9843B707840019E392
:10032400B7070300372701105447DD8E54C714471D
:10033400DD8E14C7545F93C7F7FFFD8E54DF145F3F
:10034400D58F1CDFC166B73701101307A00898CFFB
:100354001387160098C70547D8C7B7870010370713
:10036400060098C79847558F98C72937B240170594
:1003740000001305E5234101A9B781473307F500C0
:100384000347070019E33E8582808507C5BF7D16B4
:10039400AA877D58630E0601850503C7F5FF850707
:1003A4009306F6FFA38FE7FE09E73E966395C70021
:1003B40082803686C5B78507A38F07FEC5BF0111A6
:1003C4002E8522CC26CA4EC606CE4AC8AE84170451
:1003D40000601304E4C255371C40AA898DC32685E6
:1003E400CD351705000013052517E13D1840894751
:1003F40063F7E7001705000013054516D93513996F
:100404000901135909019357790017070060A30FD5
:10041400F7C697070060238C07C6930710041707D5
:100424000060A306F7C697070060238137C71C4006
:10043400894963FFF9001705000013052513513599
:100444001C4063F7F900170500001305E511953DFD
:1004540017070060034787BB9307200617050000B2
:100464001305C5116315F7024A86A68517050060B2
:100474001305C5C1293F17070060034727B9930730
:1004840010046310F7021705000013056510153DED
:1004940005442285F2406244D2444249B24905618E
:1004A4008280184089470144E3E5E7FE1705000010
:1004B4001305450F3935F1BF19B7B7270110D85FB8
:1004C400411106C6137777DCD8DF985F137787234B
:1004D40098DFD84313670740D8C3B7470210130700
:1004E400400698C337070800B8C3094798CBB853E8
:1004F400799BB8D323840702984F719B98CF3747D1
:1005040002107C47FDFF170500001305A50D553BA0
:1005140013064006970500009385850B37450210A6
:10052400613F13064006970500009385E50A3745A9
:100534000210593713064006970500009385C50A33
:1005440037450210953FB240170500001305850991
:04055400410185BB21
:100558002D2D3E00466C61672053656E740D0A00B0
:10056800434D44204C656E6774682053656E740D66
:100578000A00000053656E64206C656E677468201D
:100588006572726F723A20002053656E6420737929
:100598006E63206572726F7220000000434D442024
:1005A800446F6E650D0A000042656E636820436CF7
:1005B8006F636B20526573657420436F6D706C6553
:1005C80074650D0A00000000415445300D0A000012
:1005D80041542B424C45494E49543D300D0A0000C8
:1005E80041542B43574D4F44453D300D0A00000000
:0805F80001000000008000007A
:0400000520000000D7
:00000001FF
