:020000042000DA
:1000000011A082808140014181410142814201432E
:1000100081430144814401468146014781470148AB
:10002000814801498149014A814A014B814B014C78
:10003000814C014D814D014E814E014F814F9711F1
:100040000060938121D4970200009382A2137390E1
:1000500052302149731049308144732940F1639F24
:100060002405972200009382E22D170300601303FA
:1000700063F9638E620093830185637A730003AE34
:1000800002002320C30191021103E36A73FE9382ED
:1000900001881383819463F7620023A00200910218
:1000A000E3ED62FEB7040002054923A02401910498
:1000B0003709000213090908E3C824FF7300501030
:1000C0007329403413798900E30A09FEB70400025A
:1000D000732940F10A0926992320090003A9040085
:1000E000E31E09FE91043709000213090908E3C75A
:1000F00024FF174100601301E1F0F32240F1139354
:10010000A20033016140014363906204152A11A0EB
:100110007D5519CD2A8E11E10545E53591623733BC
:1001200000001303333342051A9523A0A20001A057
:100130000F00F00F0145F1359162375300001303B2
:10014000535523A0620001A0732540F1052019CD6D
:100150002A8E11E10545753591623733000013038E
:10016000333342051A9523A0A20001A0730050105A
:10017000F5BF130000001300000013000000010091
:10018000197106C20EC612C816CA1ACC1ECE22D0CB
:1001900026D22AD42ED632D836DA3ADC3EDEC2C097
:1001A000C6C2CAC4CEC6D2C8D6CADACCDECEE2D067
:1001B000E6D2EAD4EED6F2D8F6DAFADCFEDE0A852A
:1001C000EF0060049240B2414242D2426243F243A5
:1001D000025492542255B2554256D2566257F257A3
:1001E000064896482649B649464AD64A664BF64BD3
:1001F000065C965C265DB65D465ED65E665FF65F23
:10020000096173002030F32220343305500021B7F8
:1002100000000000000000000000000000000000DE
:1002200000000000000000000000000000000000CE
:1002300000000000000000000000000000000000BE
:10024000011106CE73505030370700108327C70BBB
:10025000B7B627D09D06638BD718B72701109047F4
:10026000370508003708F8FF498E90C7B0437D185E
:10027000B7C80002498EB0C38C5F3706C0FF7D1639
:10028000B3F505018CDFCC47C98DCCC78C47F18D08
:100290008CC78C5F6D8E90DF0328C70B232ED70A87
:1002A00003A788FF83A7C8FF3AC03EC202459167F3
:1002B0009245AA9733B7A7003EC4B306B70036C627
:1002C00003A688FF83A6C8FF2247B24763F0F61C47
:1002D000B7C8000203A688FF83A6C8FF2247B2471B
:1002E000E3EAF6FE6394D700E366E6FEB707001084
:1002F00023AE070B3727011023260700232007040E
:100300002324070003A7C70BB7C6D0BE938606ED0C
:100310006303D71803A6C70B37B727D01D07630C95
:10032000E61637F751001307E71523A6E7146146D1
:1003300023A0C71223A6E71423A2C71223A6E714FB
:1003400023A4C71223A6E71423A6C71223A6E714E3
:100350001306800323A8C71223A6E71423AAC712F3
:1003600023A6E71423ACC71223A6E71423AEC712B3
:1003700023AED70A23A2070823A6E71423A4071451
:1003800037C70002032687FF8326C7FF916732C065
:1003900036C202489248C29733B507013EC4B3063D
:1003A000150136C6032687FF8326C7FF2247B247BB
:1003B00063F8F60E37C80002032688FF8326C8FFBD
:1003C0002247B247E3EAF6FE6394D700E366E6FE0F
:1003D000EF00F053EF10806FB70701208297F240D3
:1003E00037D512001305756805618280232E070A30
:1003F000B7270110984737064000B705C0FF518F57
:1004000098C7B843FD1537C80002518FB8C3945F31
:100410003707F8FF7D17ED8E94DFD447116EB728AC
:100420000110D18ED4C7944737034000F98E94C78A
:10043000945F758F98DF032788FF8327C8FF3AC032
:100440003EC2824E124FB385CE0133B6D5012EC4C3
:10045000B307E6013EC6032588FF8325C8FF224671
:10046000B24663FAD500032588FF8325C8FF2246DC
:10047000B246E3EAD5FE6394B600E366C5FE83A701
:100480000804B3C7670023A0F80475B7E390D7E664
:10049000E360E6E4A1BDB707001023AE070ACDB5BF
:1004A000E398D7F2E368E6F025B7B7260110CC460B
:1004B00037066800B377C50093C7F7FF1347F5FF0A
:1004C00033F5B700B377C7005D8DC8C68280411190
:1004D0003707680006C6B72701101307070398C738
:1004E00023AC0702D8C77D5737052000D8CB753F0E
:1004F000B240014541018280411106C67D15894700
:1005000063EEA700B7270020938707EC0A053E9506
:100510000841613FB24005454101828037054000F6
:100520006937B24005454101828041113705080015
:1005300006C6A53FB240014541018280373702100F
:100540001C43E3CF07FE08C38280B707011088D79A
:10055000F32700B0732700B813851700B337F500F1
:100560003E97F32600B0F32700B8E3ECE7FE6314F0
:10057000F700E3E8A6FE130EF6FF9307E003335EF1
:10058000FE02814605433705011013080002050EDF
:1005900021A0850663890609B3D7D500858BF5DBD5
:1005A000B317D3005CD5F32700B0732700B8938846
:1005B0001700B3B7F8003E97732600B0F32700B8D2
:1005C000E3ECE7FE6314F700E36816FF23226500FF
:1005D000F32700B0732700B8B388C701B3B7F8009A
:1005E0003E97732600B0F32700B8E3ECE7FE6314F0
:1005F000F700E36816FF23220500F32700B07327F6
:1006000000B893887700B3B7F8003E97732600B020
:10061000F32700B8E3ECE7FEE31DF7F6E36816FF07
:100620008506E39B06F78280732500B0F32500B8AA
:100630008280B7C7000223AC07FE83A687FF73261C
:1006400000B0F32700B837C70002832787FF958FD4
:10065000E3EDA7FEF32700B0732700B8918F33D5E1
:10066000A7023305B502828083A70188AA8637379F
:10067000011091C3E1B51C43E3CF07FE14C3828090
:1006800009E5732500B0F32700B81357E501935728
:10069000A500B98FA98F1357F501B98FFE07058102
:1006A0005D8D8280372701101C47B726011093E724
:1006B00007021CC7F32700B0732700B893F7072081
:1006C000F5FBDC4693E70702DCC6F32700B073278F
:1006D00000B893F70720F5DBDC4693F7F7FDDCC69F
:1006E000D1BF83A80188638A080AB737021003A81C
:1006F00047004DC9635B0001B73601103737021060
:100700006386080A5C43E34DF0FE374EF0FF014379
:100710000146373F0110B73E0210B72601101305FE
:10072000401F7D1EB7CF0F006386080603A84E004A
:10073000F32700B0732700B893F70720F5FBDC46DA
:1007400093E70702DCC6F32700B0732700B893F7DE
:100750000720F5DBDC461307160093F7F7FDDCC630
:100760006376C5023A8691CDD84605039317E30018
:100770003377C701D8C6D846B3F7F7010146D98FFA
:10078000DCC6E35300FB1375F80F82803A86E35D05
:1007900000F9D5BF03284F0061BFB737011003A888
:1007A000470029F90145E34000FF8280DC42E3492C
:1007B000F0F4A1BF411122C426C24AC006C6AA84D1
:1007C0003734011003C5040009C983A701888504D3
:1007D00099CBAD3303C504006DF9B2402244924475
:1007E0000249410182801C40E3CF07FE08C0D9BF07
:1007F00001114AC852C406CE22CC26CA4EC656C2E1
:100800002A8983A60188634B050649C581440144B2
:10081000294711A0BE843376E902931724003E9441
:100820000604938714003359E9023294E31409FE55
:10083000A94937390110FD5A09A8FD140133335471
:1008400034036384540383A601883375340313058A
:100850000503E5F683270900E3CE07FE2320A90060
:10086000FD1433543403E39054FFF2406244D24405
:100870004249B249224A924A0561828037370110C3
:1008800089EE1C43E3CF07FE9307D0021CC3330954
:100890002041ADBF0144814461BF1305D0027939C5
:1008A00083A601883309204195B7011122CC2A84FF
:1008B0001305803E3355A4024EC606CE26CA4AC84A
:1008C00052C456C2353703A70188B736011035EB3D
:1008D0009C42E3CF07FE9307E0029CC2930A803E4E
:1008E00033745403130A40060D49B73401103355CD
:1008F0004403130505031375F50F05C77D193D392D
:1009000063080902931724003E94060433745403C9
:1009100003A7018833554403130505031375F50F29
:1009200071FF9C40E3CF07FE88C07D19E31C09FCE2
:10093000F2406244D2444249B249224A924A056195
:1009400082801305E002DD3E03A7018841BF01114B
:100950004EC683A7018822CC06CE26CA4AC852C4F6
:100960002A8437370110ADEF1C43E3CF07FE93070E
:1009700000031CC3373701101C43E3CF07FE930766
:1009800080071CC32149370A00A0B734011009A809
:10099000130505039DCF7D19553612046303090223
:1009A0001355C40183A70188E36444FF130575054B
:1009B000FDF39C40E3CF07FE88C07D191204E311CC
:1009C00009FEF2406244D2444249B249224A0561DA
:1009D00082809C40E3D207FE9C40E3CC07FEE9BF47
:1009E00013050003A13E83A70188C9D7130580071B
:1009F000B13649BF411122C426C206C62A84AE843C
:100A000015C937250020130585ED6D3326855D3327
:100A100037250020130545EE713B2285D13B372554
:100A20000020130545FD79332285B24022449244CB
:100A3000410182802E85BD3B372500201305C5EC82
:100A4000953B2285B2402244924441018280732624
:100A500000B0732700B89307F5FF1305E003B3D781
:100A6000A70285073E96B337F600BA97F32600B083
:100A7000732700B8E36CF7FE6394E700E3E8C6FE73
:100A800082809317550037C70002232C07FE3E953E
:100A9000832787FFE3EEA7FE8280B7C7000223AC5F
:100AA00007FE37C70002832787FFE3EEA7FE828099
:100AB000B7C70002856623AC07FE938636CE03A730
:100AC00087FF138687FFE3FCE6FE83A70188C9C77B
:100AD000B7270110D85FB7067CFFFD16758FD8DFEA
:100AE000985FB7068400558F98DF03A80184232000
:100AF00006001042F32800B0F32700B88565B7C69A
:100B00000002138775BB83A786FF918FE37DF7FEF5
:100B1000F32700B0732700B8B3871741938585BBCF
:100B2000B3D7B70237370210B7C60002B38707033F
:100B300033D5A7027D1508CF1C4793E717001CC7C4
:100B4000B7C70002056723AC07FE130737CE83A79C
:100B500086FFE37EF7FE8280B7270110D85FB706D5
:100B6000FDFFFD16758FD8DF985FB7060300558F20
:100B700098DF03A80184232006001042F32800B068
:100B8000F32700B88565B7C60002138775BB83A736
:100B900086FF918FE37DF7FEF32700B0732700B83F
:100BA000B3871741938585BBB3D7B7023737011099
:100BB000A5BFB7870010D8439316170063C206027B
:100BC000D843B7060040558FD8C38566B7C7000223
:100BD00023AC07FE938636CE03A787FFE3FEE6FE2F
:100BE000378700101C47B7060400D58F1CC7B7C74E
:100BF000000223AC07FE9306106703A787FF138646
:100C000087FFE3FCE6FE378700101C43939617002E
:100C100063C30602144337080040B7C70002B3E6B7
:100C2000060114C3856623200600938636CE03A7EB
:100C300087FFE3FEE6FE9317050137051F00E98FE6
:100C400093F5F50237070040CD8FBA97378700102C
:100C50001CC3B7C7000223AC07FE1306106703A727
:100C600087FF938687FFE37CE6FE378600101C46ED
:100C700041777D17F98F1CC623A006001307106764
:100C8000B7C6000283A786FFE37EF7FE3787001012
:100C90001C47B70604007165D58F1CC713050520D6
:100CA00001BDB7870010D8439316170063C406022E
:100CB000D84337080040B7C6000233670701D8C3DE
:100CC000B7C7000223AC07FE9307901403A786FF63
:100CD000E3FEE7FE378700101C47B7060400130841
:100CE000400AD58F1CC7B7C7000223AC07FE03A775
:100CF00087FF938687FFE37CE8FE378700101C4759
:100D0000370802002A06B3E707011CC7032887003B
:100D100093974500C165B365B8000CC70C470568DB
:100D2000130808C033780601417693F7073F6D8EAC
:100D30001D89B3E70701518DAA971CC723A00600A0
:100D4000B7C700029306901403A787FF138687FF97
:100D5000E3FCE6FEB78700109C4763CB0700B7862D
:100D600000109C463707FCFF7D17F98F9CC68280D8
:100D7000116723200600B7C600021307370783A7B1
:100D800086FFE37EF7FEB78600109C463707FCFF20
:100D90007D17F98F9CC68280B7A507009385051241
:100DA000B355B502B7870010984798479C47411143
:100DB00006C69307000863FFB70413951500AA95AC
:100DC000898563D6B70886050D4533C5A5029355B9
:100DD000154063D9A70663D3B706935625409355AC
:100DE00035400146054563D6D7048585B7C700025F
:100DF000FD1523AC07FEB7C600021307901483A7A6
:100E000086FFE37EF7FE713DB24071651305052054
:100E1000410179B991470D450D4613D71540B38768
:100E2000E702930600308607E3D1F6FC7D16BA850B
:100E30006DBF2E87A147B6850546D5B7A1470545A5
:100E40000946E1BFAA85A14705450D46F9B7954773
:100E500009450D46D9B7B7070110854694C3984395
:100E600075DF8280B707011023A007008280B707D3
:100E700001100546854694C3984375DFD0D390CBC7
:100E8000114798CFF32700B0732700B81386970057
:100E9000B337F6003E97F32600B0F32700B8E3EC33
:100EA000E7FE6314F700E3E8C6FE8280B70701108F
:100EB00023AC070023A8070023A20702F32700B0F2
:100EC000732700B813861703B337F6003E97F3264F
:100ED00000B0F32700B8E3ECE7FE6314F700E3E8A3
:100EE000C6FEB707011023A00700828099C16FF0EA
:100EF000CFE58280B70702000A053E95084182804F
:100F00006357C002131725000A060D8FB7070200AA
:100F10002E9601453E97B307B7009C439441910537
:100F200093C7F7FFF58F5D8DE397C5FE828001457E
:100F3000828001114EC6B28922CC52C406CE26CA86
:100F40004AC856C25AC02A8A2E84153763583003BD
:100F5000939A2900316BA2845289A29A130B0B3504
:100F600021A00509638C54018C409104FDD94A8568
:100F70005A86EFF08FDD0509E39854FFB70701109B
:100F800023AC070023A8070023A20702F32700B021
:100F9000732700B813861703B337F6003E97F3267E
:100FA00000B0F32700B8E3ECE7FE6314F700E3E8D2
:100FB000C6FEB707011023A0070063523005931641
:100FC0002A0013972900818EB7070200A285229775
:100FD0000145BE96B387B6009C439041910593C7E7
:100FE000F7FFF18F5D8DE397E5FEF2406244D24456
:100FF0004249B249224A924A024B05618280014528
:10100000EDB76352C00493172500B7080200B386FA
:10101000F800984194421347F7FF758F49E78D8F89
:10102000138745008146BE9811A81C430328080079
:10103000110793C7F7FFB3F70701B5E785063388B4
:10104000E800E314D6FEB16601119386063522CC82
:1010500026CA4AC84EC606CE52C4AE84AA89328475
:10106000C93D294905C9372A0600130A0AA8D286AC
:101070002286A6854E85753D7D1909CDE31909FEA9
:10108000F2406244D2444249B249224A1305402107
:1010900005618280F2406244D2444249B249224A08
:1010A000014505618280130550208280B7870010BA
:1010B0003707060098C798474166B7C60002518FA8
:1010C00098C723AC06FE03A686FF732800B0F3275B
:1010D00000B88565138775BB83A786FF918FE37D75
:1010E000F7FE732500B0F32700B83305054193855B
:1010F00085BB3355B5029307803E3E053355F50257
:10110000B707401F33D5A70223A0A18482803747A9
:1011100001103C43011106CEF19B3CC3F377043030
:10112000B727011023A4070023AC070203A70188F7
:1011300023A6070023A007045DC3D8473706840011
:10114000B7057CFF518FD8C7944737370210D18E2F
:1011500094C7D45FFD15ED8ED4DF945FD18E94DFFC
:101160009307A0081CCFC16785071CC785475CC7CC
:1011700002C6B24709671307F7706348F700B24722
:1011800085073EC6B247E35CF7FEB7870010370716
:10119000060098C79847C166558F98C7013F372505
:1011A0000020130585EFEFF0EFE037250020130551
:1011B00005F0EFF02FE037250020130585F0EFF064
:1011C0006FDF37250020130505F1EFF0AFDEF240A9
:1011D000372500201305C5F105616FF0AFDDD84755
:1011E00037060300B705FDFF518FD8C7944737373F
:1011F0000110D18E94C7D45FB1BF86057D152E95A1
:10120000B355B5023335B0003385A54082809307CE
:101210008504AFA7B740E3CC07FE82807C45E3CFCF
:1012200007FE13F5F70F828093078504AFA7B74039
:10123000E3CC07FE7C45E3CF07FE13F5F70F828072
:10124000184DAA87719B1367270018CD0D4713858A
:1012500087042F25E540E34C05FEF847E34F07FEE2
:10126000135706011377F70F138587042F25E540E1
:10127000E34C05FEF847E34F07FE1357860013774C
:10128000F70F138587042F25E540E34C05FEF8474B
:10129000E34F07FE1376F60F138787042F27C74007
:1012A000E34C07FEF847E34F07FE95C23386D500AF
:1012B0008146138787042F27D740E34C07FEF84762
:1012C000E34F07FE2380E5008505E394C5FE984FB4
:1012D0000145719B98CF8280411122C406C62A84A1
:1012E000EF00F012229583471500228593F77709C6
:1012F00091EB13053002EFF02FB72285EFF04FCFBF
:10130000130500022244B24041016FF0EFB583475C
:10131000050095CF411122C406C62A8421A0834727
:10132000040095C3EF00B00E0347040005043A958E
:101330008347150093F77709FDD33A85EFF0CFB2D5
:1013400083470400E5F3B240224441018280828059
:10135000B72701109C43411122C426C206C64AC0C9
:1013600093F70740AA8401448DE36350A002372914
:10137000011019A0638E84002945EFF08FF08327B8
:101380000900050493F70740F5D7638384000144FF
:101390002285B24022449244024941018280411197
:1013A00022C42A84154526C206C6AE84EFF06FED2E
:1013B0001C4CF19B93E727001CCC63509004938650
:1013C0008188138506041388F4FFB385A4002A8757
:1013D00003C60600F9472304C4040100FD17F5FF06
:1013E000B307A7406301F8027C44E3CF07FE230064
:1013F000F70005078506E31DB7FCB240224492447E
:101400000145410182801C4CF19B1CCCF1BF411174
:1014100006C67137B240014541018280797122D4FC
:10142000138481884ECE52CC5EC606D626D24AD0D0
:1014300056CA5AC862C493090404AE8B2A8A230090
:10144000B400A300040023010400A3010400130757
:10145000040CCE87238007008507E39DE7FE03A7E2
:101460004184894763E0E7122945DD3503A74184BC
:1014700045C5854763E1E710054691455285053727
:101480002945F93545C5A944130C3004054BB72A45
:1014900000202945753DFD1409E583470404638F49
:1014A000870183A7418413858AF86374FB00EFF0FA
:1014B0006FB0054691455285DD35E1FC2945493D32
:1014C0006318050E03A74184894763E1E708834752
:1014D00004041307300401456384E7020947638E5F
:1014E000EB0E05476382EB0E3E85FD330345140486
:1014F000E53303452404CD3303453404F13B05456E
:10150000B250225492540259F249624AD24A424B92
:10151000B24B224C456182808947E3FFE7F43725CF
:101520000020130545F7EFF0EFA8B9B703A74184F2
:101530008947E3FEE7F837250020130585FDEFF026
:101540006FA703A741848947E3F3E7F83725002015
:101550001305C5FEEFF00FA69384490003C50900EB
:1015600085099D3BE39C99FE37250020130545FD29
:10157000EFF04FA4A9BF372500201305C5F4EFF005
:101580006FA3DDBD372500201305C5F3EFF08FA253
:10159000A284930A440003C504008504353BE39C00
:1015A0009AFE37250020130545FDEFF0AFA06DBD75
:1015B00037250020130505FBEFF0CF9F03A74184DB
:1015C0008947E3F6E7F059B73725002013050501F1
:1015D000EFF04F9E8347040401BF37250020130519
:1015E000C5FFEFF02F9D83470404FDBD797152CCF8
:1015F0002A8A2E8522D44ECE56CA5AC806D626D25C
:101600004AD05EC662C4AE8A328BEF00807983A76F
:101610004184AA89DDE38945528509352A8949E152
:1016200003A74184894763EFE70E939B090193DB8E
:101630000B419384818893D77B40A380F40091670A
:10164000938707102391F40093F9F9070546914514
:10165000528523803401A13303A74184894763EA7B
:10166000E70C5A85F5313DE103A74184894763EDD5
:10167000E70C03C70404930720066305F706372524
:1016800000201305450613840404EFF0AF92938401
:1016900044040345040005048131E31C94FE05491C
:1016A000B25022544A8592540259F249624AD24AAF
:1016B000424BB24B224C4561828056858939372591
:1016C000002013054502EFF0EF8EB1B7372500205B
:1016D00013054503EFF00F8E03C70404930720069C
:1016E000E31FF7F85E86D68513858188EF00206FAB
:1016F0000546DE855285653103C70404930730042F
:10170000630BF7045A85A93139ED03A74184894752
:101710000149E3F7E7F8372500201305450AEFF004
:101720006F89BDBF3725002013058502EFF08F8834
:10173000EDBD3725002013054505EFF0AF875A852D
:101740000139E30305F259B73725002013050505D4
:10175000EFF04F8639BF3725002013058507EFF0DE
:101760006F85054935BF372500201305C508EFF003
:101770006F843DB7397126DA938481884AD84ED672
:1017800056D25ECE62CC6AC86EC606DE22DC52D469
:101790005AD066CAAA8A8149372D0020938D040445
:1017A000938B4404372C002083A64184894763F639
:1017B000D70013050D0BEFE0FFFF85455685B939BE
:1017C0002A8A631A051483A64184894763E5D716DC
:1017D0006E8B9387040C6E84230004000504E31DC4
:1017E000F4FEA687238007008507E39DB7FF054623
:1017F000914556856D3613054006993E25E583A72C
:101800004184894663E0F61403C634049306200439
:10181000630ED6080544636BF400A547638BF91289
:1018200013054006EFF0EFA58509BDBF3725002061
:101830001305C511EFE01FF803C53404EFE0DFE244
:1018400013054CFDEFE01FF7A5476384F91083A74C
:101850004184E377F4FC3725002013050513EFE0FE
:101860007FF57DBF372500201305450DEFE09FF480
:1018700083A741848946E3F9F6F8B727002013854A
:101880008710EFE03FF3EE8C03C50C00850CA93404
:10189000E39C7CFF13054CFDEFE0DFF103C634044D
:1018A0009306200483A74184E316D6F683C9140463
:1018B00003C6040485469E09B29963EEF608EE87D6
:1018C000238007008507E39D87FE0146CE85568568
:1018D000F93483A64184CE9423800404854763FCB5
:1018E000D7023725002013054515EFE0BFEC638EC6
:1018F0000900EE9903450B00050BEFE07FEF1305A0
:101900000002EFE07FD6E3173BFF372500201305E9
:1019100045FDEFE03FEAF25062545285D2544259FD
:10192000B259225A925A025BF24B624CD24C424D4F
:10193000B24D21618280B72700201385470CEFE06C
:101940007FE779B5372500201305450FEFE09FE6C7
:1019500005B7054AC9B73725002013050514EFE080
:101960007FE54E85EFE0DFE813050002EFE0DFCF13
:1019700037250020130545FDEFE0DFE389B77971D6
:101980004ECE52CC26D256CA5AC85EC662C406D6BD
:1019900022D44AD0AA8B930410039389818C372CCC
:1019A0000020138A818C372B002035A8C1E3B7258E
:1019B00000201946938505192285ED2EB7250020B4
:1019C00019469385451AFD1449CD2285E526B7258C
:1019D000002019469385C51B4DC12285E12EFD5778
:1019E00055C96383F4065E8571332A89054713055B
:1019F0008B176315090483A741845284E378F7FAAF
:101A0000EFE05FDB2685EFE0BFDE1305A003EFE02C
:101A1000BFC513050002EFE03FC54E85EFE09FD93B
:101A200013054CFD4E84EFE0FFD851B74E85C5300D
:101A300013054CFD4E84EFE0FFD795BF37250020FE
:101A400013058516EFE01FD7B25022544A859254F1
:101A50000259F249624AD24A424BB24B224C45618A
:101A6000828083A741840549E370F9FE3725002071
:101A700013058519EFE01FD4C1BF03A74184854733
:101A80000949E3F3E7FC372500201305051BEFE0C8
:101A90007FD25DBF03A7418485477D59E3F6E7FA0E
:101AA000372500201305851CEFE0DFD071BF411101
:101AB00022C406C62A841D3E09C5B2402244410103
:101AC000828022852244B240410155BDB7270110D2
:101AD000D45F411106C622C4DD9AD4DFD45F3747F4
:101AE0000210BD9AD4DFD05FB74602101376F6FD20
:101AF000D0DFD05F1376F6DFD0DF905F136686000D
:101B000090DF905F1366060190DF905F1366060218
:101B100090DF905F1366062090DFD0431366064087
:101B2000D0C3930740061CC3B70708003CC38947CE
:101B30001CCB3C53F99B3CD3230607021C4FF19B63
:101B40001CCFFC46E34FF0FE37240020130544FD74
:101B5000EFE05FC6B7250020130640069385451DBC
:101B600037450210A937B725002013064006938594
:101B7000C51D37450210253FB72500201306400636
:101B80009385C51E374502101D37130544FDEFE050
:101B90007FC2B240224401454101828021C64111E9
:101BA0009705000093854567328522C406C63284B6
:101BB000D12805C1970500009385C5652285D920E8
:101BC00009C99705000093856542228565288147EC
:101BD00009E5970700009387E763B24022443E85FA
:101BE00041018280970700009387C7623E8582800B
:101BF0009387C1849C43DC5B89E797E7FF5F93870A
:101C0000674003C5871282800325C50E82809387B3
:101C1000C1849C43DC5B89E797E7FF5F9387873E3E
:101C200003A5C70E82809387C1842E86AA85884328
:101C3000B5B79387C1849C43DC5B89E797E7FF5F77
:101C40009387473C03A3470E028385E141116C0053
:101C5000014511CA795581CA834706009CC10345D5
:101C600006003335A00041018280014519CA79552B
:101C700089CA834706009CC1034506003335A0008E
:101C8000828082803367B500FD530D8B79E7B7877B
:101C90007F7F9387F7F710419441B372F600336367
:101CA000F600BE92B3E262006397720C6318D60628
:101CB0005041D441B372F6003363F600BE92B3E2F2
:101CC00062006398720A631BD60410459445B37290
:101CD000F6003363F600BE92B3E262006391720ACB
:101CE000631ED6025045D445B372F6003363F60046
:101CF000BE92B3E26200639A72086311D602104981
:101D00009449B372F6003363F600BE92B3E2620008
:101D1000639372085105D105E30FD6F61317060138
:101D200093970601631CF7001357060193D706012A
:101D30003305F7409375F50F91E982804183C183A4
:101D40003305F7409375F50F91E182801377F70F14
:101D500093F7F70F3305F74082800346050083C6EB
:101D60000500050585056313D60065FA3305D640E1
:101D7000828011059105E312D6FE0145828021057E
:101D8000A105E31CD6FC014582803105B105E316AF
:101D9000D6FC014582804105C105E310D6FC014512
:101DA0008280AA87850703C7F7FF6DFF3385A740A9
:101DB0007D1582801DC21307150032958347F7FFFA
:101DC00083C605006385D7003385D7408280E30D45
:101DD000A7FE0507F5DB8505D5B7014582802A8773
:101DE00011E28280850583C6F5FF9307170013086B
:101DF000F6FFA38FD7FE89E632976396E7008280CD
:101E00003E874286F1BF8507A38F07FEFDB7938704
:101E1000C1849C43DC5B89E797E7FF5F9387871E5C
:101E200003A3070E028391CD9307F00F63F7C7005A
:101E30009307A0081CC17D5582802380C5000545FD
:101E40008280014582800000000000000000000048
:101E50000000000000000000000000000000000082
:101E60000000000000000000000000000000000072
:101E70000000000000000000000000000000000062
:061E80000000000000005C
:101EC00000004800000060000000680020504153FE
:101ED0005345440D0A0000000D0A4552524F523A34
:101EE00020000000204641494C45442057495448B1
:101EF00020434F44452000001B5B3146000000009A
:101F00001B5B304A000000001B5B3F32356800005D
:101F10001B5B303B33393B34396D000042656E63E7
:101F20006820436C6F636B20526573657420436F48
:101F30006D706C6574650D0A0000000053656E6479
:101F4000696E6720466C61673A20000053656E64D5
:101F500020466C61672054696D6564204F7574205C
:101F600057616974696E6720666F7220526561649B
:101F7000790D0A0053656E6420466C6167205374C6
:101F800061727465640D0A0053656E6420466C616D
:101F9000672054696D6564204F75742042757379AC
:101FA0002E205265747279696E672E0D0A0000004A
:101FB00053656E6420466C61672054696D656420CA
:101FC0004F757420427573792E20476976696E6764
:101FD0002055702E0D0A000053656E6420466C611A
:101FE0006720446F6E650D0A00000000466C616753
:101FF0002052656365697665643A20002053656EFA
:102000006420466C6167206572726F723A2000002E
:10201000205265637620466C6167206572726F722C
:102020003A2000002D2D3E00466C61672053656EFE
:10203000740D0A00434D44204C656E67746820544B
:10204000696D6564204F757420427573790D0A00BF
:10205000434D44204C656E6774682053656E740D63
:102060000A00000053656E64206C656E677468201A
:102070006572726F723A20002053656E6420737926
:102080006E63206572726F7220000000434D442021
:1020900054696D6564204F757420427573790D0A1B
:1020A00000000000434D4420446F6E650D0A00009F
:1020B0005245435620466C616720436865636B0D4B
:1020C0000A0000005245435620466C6167204F4B82
:1020D0000D0A000052656365697665204C656E6780
:1020E00074682054696D6564204F7574204275735F
:1020F000790D0A0052656365697665204C656E67E7
:102100007468204F4B0D0A004C656E67746820524E
:10211000656365697665643A200000005265637600
:10212000206C656E677468206572726F723A200069
:102130005265747279696E672E2E2E0D0A000000AA
:1021400052656376204C656E6774682069733A2027
:102150000000000072785F62756620636F6E7465C0
:102160006E74733A20000000676F742072656376A6
:10217000206572726F7220004F746865722052651C
:102180006376206D6573736167652320000000002E
:102190000D0A4F4B0D0A0000676F74206F6B0D0A1C
:1021A000000000000D0A72656164790D0A000000EC
:1021B000676F742072656164790D0A000D0A4552DB
:1021C000524F520D0A000000676F74206572726FE3
:1021D000720D0A00415445300D0A000041542B4253
:1021E0004C45494E49543D300D0A000041542B43A3
:1021F000574D4F44453D300D0A0052554E0D0A00D3
:1022000050415353004641494C20000D0A00000044
:1022100043000000504F5349580000002E000000BA
:1022200000202020202020202020282828282820A6
:10223000202020202020202020202020202020209E
:102240002088101010101010101010101010101006
:1022500010040404040404040404041010101010F6
:1022600010104141414141410101010101010101C0
:102270000101010101010101010101011010101012
:102280001010424242424242020202020202020292
:1022900002020202020202020202020210101010E6
:1022A000200000000000000000000000000000000E
:1022B000000000000000000000000000000000001E
:1022C000000000000000000000000000000000000E
:1022D00000000000000000000000000000000000FE
:1022E00000000000000000000000000000000000EE
:1022F00000000000000000000000000000000000DE
:1023000000000000000000000000000000000000CD
:1023100000000000000000000000000000000000BD
:0123200000BC
:10234000430000000000000000000000000000004A
:10235000000000000000000000000000000000007D
:10236000430000000000000000000000000000002A
:10237000000000000000000000000000000000005D
:10238000430000000000000000000000000000000A
:10239000000000000000000000000000000000003D
:1023A00043000000000000000000000000000000EA
:1023B000000000000000000000000000000000001D
:1023C00043000000000000000000000000000000CA
:1023D00000000000000000000000000000000000FD
:1023E00043000000000000000000000000000000AA
:1023F00000000000000000000000000000000000DD
:102400004300000000000000000000000000000089
:1024100000000000000000000000000000000000BC
:10242000261E00204A1C0020000000002022002060
:102430001C220020E81F0020E81F0020E81F0020C9
:10244000E81F0020E81F0020E81F0020E81F0020F0
:10245000E81F0020E81F0020FFFFFFFFFFFFFFFF36
:10246000FFFFFFFFFFFF0000010041534349490008
:10247000000000000000000000000000000000005C
:1024800000000000000000000000415343494900E3
:10249000000000000000000000000000000000003C
:1024A000000000000000000000000000000000002C
:1024B000000000005C040080C40400802C05008043
:1024C000000000000000000000000000000000000C
:1024D00000000000000000000000000000000000FC
:1024E00000000000000000000000000000000000EC
:1024F00000000000000000000000000000000000DC
:1025000000000000000000000000000000000000CB
:1025100000000000000000000000000000000000BB
:1025200000000000000000000000000000000000AB
:10253000000000000000000000000000000000009B
:10254000000000000000000000000000000000008B
:10255000000000000000000001000000000000007A
:102560000E33CDAB34126DE6ECDE05000B0000003F
:10257000000000000000000000000000000000005B
:10258000000000000000000000000000000000004B
:10259000000000000000000000000000000000003B
:1025A000000000000000000000000000000000002B
:102900000080000001000000700100807001008064
:0400000520000000D7
:00000001FF
